{
  "contractName": "TodoList",
  "abi": [
    {
      "constant": true,
      "inputs": [],
      "name": "tasksCount",
      "outputs": [
        {
          "name": "",
          "type": "uint256"
        }
      ],
      "payable": false,
      "stateMutability": "view",
      "type": "function",
      "signature": "0xbb6a0f07"
    }
  ],
  "bytecode": "0x608060405260008055348015601357600080fd5b506099806100226000396000f3fe608060405260043610603e5763ffffffff7c0100000000000000000000000000000000000000000000000000000000600035041663bb6a0f0781146043575b600080fd5b348015604e57600080fd5b5060556067565b60408051918252519081900360200190f35b6000548156fea165627a7a7230582059d811034c4c13c14166783a38b3ec14bec0a1b48cac64ced6207a7a9e8bf03a0029",
  "source": "// SPDX-License-Identifier: MIT\r\npragma solidity >=0.4.0 <0.9.0;\r\n\r\n//Contacts are crrated using \"contract\" keyword\r\ncontract TodoList {\r\n\r\n //State variable inside solidity are actually written to the blockchain.They actually represents state of the smart contract on the blockchain\r\n  uint public tasksCount = 0;\r\n\r\n}",
  "sourcePath": "E:/blockchain bootcamp/Blockchain Developer Bootcamp/Blockchain Project/pr0/eth-todo-list/contracts/TodoList.sol",
  "compiler": {
    "name": "solc",
    "version": "0.5.0+commit.1d4f565a.Emscripten.clang"
  },
  "schemaVersion": "3.0.1",
  "updatedAt": "2022-05-05T15:43:25.311Z",
  "devdoc": {
    "methods": {}
  },
  "userdoc": {
    "methods": {}
  }
}